:1000000021C03BC03AC039C06EC037C036C035C011
:1000100034C033C032C02AC130C02FC02EC02DC062
:100020002CC02BC02AC029C028C027C026C025C08C
:1000300024C023C03EC040C042C044C046C048C0E7
:100040004AC04CC011241FBECFEFD2E0DEBFCDBFEF
:1000500011E0A0E0B1E0EEE5F7E002C005900D92FE
:10006000A230B107D9F721E0A2E0B1E001C01D92B2
:10007000A930B207E1F7CBD170C3C2CF9FEF980F81
:10008000983030F428B1287F922B98B943983B9A46
:10009000811105C088B1887F88B93B98439A08953B
:1000A00090E0FC013197E830F105D8F4E65EFF4FAF
:1000B000099481E085B9089582E085B9089584E0C6
:1000C00085B9089588E085B9089580E185B90895D6
:1000D00080E285B9089580E485B9089580E885B9FE
:1000E000089515B808951F920F920FB60F9211241C
:1000F0002F933F934F935F936F937F938F939F9330
:10010000AF93BF93EF93FF93809100018230F1F49E
:10011000809103018F5F80930301809103018930F7
:1001200018F081E08093030180910301A7DF8091A3
:100130000301B6DFE1E8F0E08081887F80831092E0
:100140008500109284008081856080838091000109
:10015000813041F580910801882321F141E08091AF
:1001600003018F5F8093030180910301893010F0B8
:1001700040930301209108018091030130E08150F8
:10018000B90102C0759567958A95E2F760FFE7CFE0
:100190008091030173DF8091030182DF10920701D8
:1001A0001092060180910001833009F048C0E1E817
:1001B000F0E08081887F8083109285001092840017
:1001C000E8E8F0E08081918196958795918380831E
:1001D000808191810A9758F488E790E09093890094
:1001E0008093880080910401809580930401E1E868
:1001F000F0E080818560808322C0359B08C09C012F
:10020000042E02C0220F331F0A94E2F7522B3599B5
:1002100009C09C01042E02C0220F331F0A94E2F78A
:10022000209552234F5F483008F0462F72E37A95AD
:10023000F1F75F3F11F7D99B08C0D99A06C050E08B
:1002400040E081E090E060E0D8CFFF91EF91BF9176
:10025000AF919F918F917F916F915F914F913F915E
:100260002F910F900FBE0F901F9018951F920F9215
:100270000FB60F9211242F933F934F935F936F9379
:100280007F938F939F93AF93BF93EF93FF9380914F
:1002900000018230C9F5E1E8F0E08081887F808349
:1002A0006091030180E090E046D280E0F9DE8BE5CA
:1002B00094E40197F1F700C0000080910301F0DEA3
:1002C0008BE594E40197F1F700C0000080E0E8DEE0
:1002D0008BE594E40197F1F700C0000080910301E1
:1002E000DFDE8BE594E40197F1F700C0000080E0C9
:1002F000D7DE8BE594E40197F1F700C00000809110
:100300000301CEDED999D99A80910001833019F585
:1003100080910401882329F0809105018F5F8093EB
:10032000050180910401811105C080910501815072
:100330008093050180910501893018F081E0809358
:10034000050180910501811103C088E080930501BA
:1003500080910501A5DEFF91EF91BF91AF919F9133
:100360008F917F916F915F914F913F912F910F905E
:100370000FBE0F901F901895AF92BF92CF92DF9251
:10038000EF92FF920F931F93CF93DF93C0E0D0E0E3
:10039000B12CCC24C394D12C0F2EFDE6EF2EF12CE2
:1003A000F02DA12CDA99DA9A86010C2E02C0000FEA
:1003B000111F0A94E2F7F701008382E36A2DF2E449
:1003C000FA95F1F700C0DA9B02C06F5FDA9A8150AC
:1003D000B1F770E080E090E043D120E030E04CE005
:1003E00052E479D118160CF4B02A2196C830D10500
:1003F000C9F610926D008B2DDF91CF911F910F9157
:10040000FF90EF90DF90CF90BF90AF90089588B1AC
:10041000806388B987B18F6087B98FEF84B9E1E8CD
:10042000F0E08081886080838EEE92E09093890076
:1004300080938800EFE6F0E08081826080833499C9
:1004400003C081E080930001359903C083E080936D
:10045000000180910001823059F480E090E063D186
:10046000809303018091030109DE8091030118DE6E
:10047000809100018330B1F48FEF8093040181E01B
:1004800080930501809105010BDE88E790E0909351
:10049000890080938800E1E8F0E0808185608083B6
:1004A00080E0ECDD789450E040E081E090E060E0B6
:1004B000359B08C09C01042E02C0220F331F0A94F2
:1004C000E2F7522B359909C09C01042E02C0220F7D
:1004D000331F0A94E2F7209552234F5F483008F00B
:1004E000462F22E32A95F1F75F3F11F7ECE6F0E0A3
:1004F000808180628083E8E6F0E080818260808392
:10050000DD24D3946894EE24E1F80F2EF3E0FF2E5F
:10051000F02D04E015E0D6E0C7E06894CC24C3F8E1
:10052000809100018130E1F727DF809308018091FD
:1005300002019091080189278093060180910601AC
:1005400090910801892380930701809106018823F7
:1005500009F479C080910701882309F44BC0809188
:100560000601882334F480910801882314F4C09292
:1005700003018091060186FF05C08091080186FD78
:10058000C09303018091060185FF05C08091080199
:1005900085FDD09303018091060184FF05C0809101
:1005A000080184FD109303018091060183FF05C0BB
:1005B0008091080183FD009303018091060182FF71
:1005C00005C08091080182FDF0920301809106012F
:1005D00081FF05C08091080181FDE09203018091B7
:1005E000060180FF30C08091080180FF2CC0D092AE
:1005F000030129C080910801882314F4C0920301EB
:100600008091080186FDC09303018091080185FD5A
:10061000D09303018091080184FD10930301809120
:10062000080183FD009303018091080182FDF0928F
:1006300003018091080181FDE0920301809108018E
:1006400080FDD09203018091080180930201809186
:10065000030114DD8091030123DD62CFE89409C01A
:1006600097FB3EF490958095709561957F4F8F4FE5
:100670009F4F9923A9F0F92F96E9BB279395F695FB
:10068000879577956795B795F111F8CFFAF4BB0F79
:1006900011F460FF1BC06F5F7F4F8F4F9F4F16C0DD
:1006A000882311F096E911C0772321F09EE8872F67
:1006B000762F05C0662371F096E8862F70E060E023
:1006C0002AF09A95660F771F881FDAF7880F96959C
:1006D000879597F9089503D008F48FEF0895990F3F
:1006E0000008550FAA0BE0E8FEEF16161706E807FC
:1006F000F907C0F012161306E407F50798F0621B1D
:10070000730B840B950B39F40A2661F0232B242BF1
:10071000252B21F408950A2609F4A140A6958FEF10
:10072000811D811D0895F999FECF12BC81BDF89AF3
:10073000992780B50895262FF999FECF12BC81BD67
:10074000F89A815000B4021639F01FBA20BD0FB6D6
:0E075000F894FA9AF99A0FBE0895F894FFCF24
:02075E00020097
:00000001FF
